{
  "contractName": "Voting",
  "abi": [
    {
      "constant": true,
      "inputs": [
        {
          "name": "",
          "type": "bytes32"
        }
      ],
      "name": "votesReceived",
      "outputs": [
        {
          "name": "",
          "type": "uint8"
        }
      ],
      "payable": false,
      "stateMutability": "view",
      "type": "function"
    },
    {
      "constant": true,
      "inputs": [
        {
          "name": "",
          "type": "uint256"
        }
      ],
      "name": "candidatesList",
      "outputs": [
        {
          "name": "",
          "type": "bytes32"
        }
      ],
      "payable": false,
      "stateMutability": "view",
      "type": "function"
    },
    {
      "inputs": [
        {
          "name": "candidateNames",
          "type": "bytes32[]"
        }
      ],
      "payable": false,
      "stateMutability": "nonpayable",
      "type": "constructor"
    },
    {
      "constant": false,
      "inputs": [
        {
          "name": "candidate",
          "type": "bytes32"
        }
      ],
      "name": "voteForCandidate",
      "outputs": [],
      "payable": false,
      "stateMutability": "nonpayable",
      "type": "function"
    },
    {
      "constant": true,
      "inputs": [
        {
          "name": "candidate",
          "type": "bytes32"
        }
      ],
      "name": "totalVotesFor",
      "outputs": [
        {
          "name": "",
          "type": "uint8"
        }
      ],
      "payable": false,
      "stateMutability": "view",
      "type": "function"
    },
    {
      "constant": true,
      "inputs": [
        {
          "name": "candidate",
          "type": "bytes32"
        }
      ],
      "name": "validCandidate",
      "outputs": [
        {
          "name": "",
          "type": "bool"
        }
      ],
      "payable": false,
      "stateMutability": "view",
      "type": "function"
    }
  ],
  "bytecode": "0x608060405234801561001057600080fd5b50604051610413380380610413833981018060405281019080805182019291905050508060009080519060200190610049929190610050565b50506100c8565b828054828255906000526020600020908101928215610092579160200282015b82811115610091578251829060001916905591602001919060010190610070565b5b50905061009f91906100a3565b5090565b6100c591905b808211156100c15760008160009055506001016100a9565b5090565b90565b61033c806100d76000396000f30060806040526004361061006d576000357c0100000000000000000000000000000000000000000000000000000000900463ffffffff1680632f265cf714610072578063392e6678146100bd5780637021939f14610106578063cc9ab26714610151578063df2d5ec714610182575b600080fd5b34801561007e57600080fd5b506100a160048036038101908080356000191690602001909291905050506101cb565b604051808260ff1660ff16815260200191505060405180910390f35b3480156100c957600080fd5b506100ec6004803603810190808035600019169060200190929190505050610211565b604051808215151515815260200191505060405180910390f35b34801561011257600080fd5b506101356004803603810190808035600019169060200190929190505050610270565b604051808260ff1660ff16815260200191505060405180910390f35b34801561015d57600080fd5b506101806004803603810190808035600019169060200190929190505050610290565b005b34801561018e57600080fd5b506101ad600480360381019080803590602001909291905050506102ed565b60405180826000191660001916815260200191505060405180910390f35b60006101d682610211565b15156101e157600080fd5b60016000836000191660001916815260200190815260200160002060009054906101000a900460ff169050919050565b600080600090505b60008054905081101561026557826000191660008281548110151561023a57fe5b9060005260206000200154600019161415610258576001915061026a565b8080600101915050610219565b600091505b50919050565b60016020528060005260406000206000915054906101000a900460ff1681565b61029981610211565b15156102a457600080fd5b6001806000836000191660001916815260200190815260200160002060008282829054906101000a900460ff160192506101000a81548160ff021916908360ff16021790555050565b6000818154811015156102fc57fe5b9060005260206000200160009150905054815600a165627a7a723058209b4ec000ac6ee1da721dc2300a24b74fc07efab7691e59d04850146d929410820029",
  "source": "pragma solidity ^0.4.23;\r\n\r\ncontract Voting{\r\n    //Constructor to Initialize the candidates\r\n    //Vote for canditates\r\n    //get count of votes for each canditates\r\n\r\n    bytes32[] public candidatesList;\r\n    mapping (bytes32 => uint8) public votesReceived;\r\n    constructor(bytes32[] candidateNames) public {\r\n        candidatesList = candidateNames;\r\n    }\r\n    \r\n    function voteForCandidate(bytes32 candidate) public{\r\n        require(validCandidate(candidate));\r\n        votesReceived[candidate] += 1;\r\n    }\r\n    \r\n    function totalVotesFor(bytes32 candidate) view public returns(uint8){\r\n        require(validCandidate(candidate));\r\n        return votesReceived[candidate];\r\n    }\r\n    \r\n    function validCandidate(bytes32 candidate) view public returns(bool){\r\n        for(uint i = 0; i < candidatesList.length; i++){\r\n            if(candidatesList[i] == candidate){\r\n                return true;\r\n            }\r\n        }\r\n        return false;\r\n    }\r\n}",
  "sourcePath": "C:\\Users\\dell\\Desktop\\Code\\Ethereum\\chapter2\\contracts\\voting.sol",
  "compiler": {
    "name": "solc",
    "version": "0.4.24+commit.e67f0147.Emscripten.clang"
  },
  "schemaVersion": "2.0.1",
  "updatedAt": "2018-07-28T20:47:33.915Z"
}